{
  "contractName": "Monopoly",
  "abi": [
    {
      "inputs": [
        {
          "internalType": "address",
          "name": "_adminAddress",
          "type": "address"
        },
        {
          "internalType": "address",
          "name": "_moneyPolyAddress",
          "type": "address"
        }
      ],
      "stateMutability": "nonpayable",
      "type": "constructor"
    },
    {
      "anonymous": false,
      "inputs": [
        {
          "indexed": true,
          "internalType": "address",
          "name": "player",
          "type": "address"
        },
        {
          "indexed": false,
          "internalType": "uint8",
          "name": "diceValue",
          "type": "uint8"
        },
        {
          "indexed": false,
          "internalType": "uint8",
          "name": "playerPosition",
          "type": "uint8"
        },
        {
          "indexed": false,
          "internalType": "uint8",
          "name": "playerTurn",
          "type": "uint8"
        },
        {
          "indexed": false,
          "internalType": "bool",
          "name": "playerHasChoice",
          "type": "bool"
        }
      ],
      "name": "DiceThrown",
      "type": "event"
    },
    {
      "anonymous": false,
      "inputs": [
        {
          "indexed": true,
          "internalType": "address",
          "name": "player",
          "type": "address"
        },
        {
          "indexed": true,
          "internalType": "uint8",
          "name": "number",
          "type": "uint8"
        }
      ],
      "name": "NewPlayer",
      "type": "event"
    },
    {
      "inputs": [],
      "name": "adminAddress",
      "outputs": [
        {
          "internalType": "address",
          "name": "",
          "type": "address"
        }
      ],
      "stateMutability": "view",
      "type": "function"
    },
    {
      "inputs": [],
      "name": "gameOn",
      "outputs": [
        {
          "internalType": "bool",
          "name": "",
          "type": "bool"
        }
      ],
      "stateMutability": "view",
      "type": "function"
    },
    {
      "inputs": [
        {
          "internalType": "uint256",
          "name": "",
          "type": "uint256"
        }
      ],
      "name": "houses",
      "outputs": [
        {
          "internalType": "uint8",
          "name": "owner",
          "type": "uint8"
        },
        {
          "internalType": "uint8",
          "name": "amountOfHouses",
          "type": "uint8"
        }
      ],
      "stateMutability": "view",
      "type": "function"
    },
    {
      "inputs": [],
      "name": "moneyPolyContract",
      "outputs": [
        {
          "internalType": "contract MoneyPoly",
          "name": "",
          "type": "address"
        }
      ],
      "stateMutability": "view",
      "type": "function"
    },
    {
      "inputs": [],
      "name": "playerCount",
      "outputs": [
        {
          "internalType": "uint8",
          "name": "",
          "type": "uint8"
        }
      ],
      "stateMutability": "view",
      "type": "function"
    },
    {
      "inputs": [],
      "name": "playerHasChoice",
      "outputs": [
        {
          "internalType": "bool",
          "name": "",
          "type": "bool"
        }
      ],
      "stateMutability": "view",
      "type": "function"
    },
    {
      "inputs": [],
      "name": "playerThrown",
      "outputs": [
        {
          "internalType": "bool",
          "name": "",
          "type": "bool"
        }
      ],
      "stateMutability": "view",
      "type": "function"
    },
    {
      "inputs": [],
      "name": "playerTurn",
      "outputs": [
        {
          "internalType": "uint8",
          "name": "",
          "type": "uint8"
        }
      ],
      "stateMutability": "view",
      "type": "function"
    },
    {
      "inputs": [
        {
          "internalType": "address",
          "name": "",
          "type": "address"
        }
      ],
      "name": "players",
      "outputs": [
        {
          "internalType": "uint8",
          "name": "playerPosition",
          "type": "uint8"
        },
        {
          "internalType": "uint8",
          "name": "playerNumber",
          "type": "uint8"
        }
      ],
      "stateMutability": "view",
      "type": "function"
    },
    {
      "inputs": [
        {
          "internalType": "uint256",
          "name": "",
          "type": "uint256"
        }
      ],
      "name": "properties",
      "outputs": [
        {
          "internalType": "bool",
          "name": "isConstructible",
          "type": "bool"
        },
        {
          "internalType": "uint256",
          "name": "constructionCost",
          "type": "uint256"
        },
        {
          "internalType": "uint256",
          "name": "rentPrice",
          "type": "uint256"
        }
      ],
      "stateMutability": "view",
      "type": "function"
    },
    {
      "inputs": [],
      "name": "assignPlayerNumber",
      "outputs": [],
      "stateMutability": "nonpayable",
      "type": "function"
    },
    {
      "inputs": [],
      "name": "resetGame",
      "outputs": [],
      "stateMutability": "nonpayable",
      "type": "function"
    },
    {
      "inputs": [],
      "name": "getGameOn",
      "outputs": [
        {
          "internalType": "bool",
          "name": "",
          "type": "bool"
        }
      ],
      "stateMutability": "view",
      "type": "function"
    },
    {
      "inputs": [],
      "name": "getPlayerTurn",
      "outputs": [
        {
          "internalType": "uint256",
          "name": "",
          "type": "uint256"
        }
      ],
      "stateMutability": "view",
      "type": "function"
    },
    {
      "inputs": [],
      "name": "throwDice",
      "outputs": [],
      "stateMutability": "nonpayable",
      "type": "function"
    },
    {
      "inputs": [],
      "name": "buildHouse",
      "outputs": [],
      "stateMutability": "nonpayable",
      "type": "function"
    },
    {
      "inputs": [],
      "name": "endTurn",
      "outputs": [],
      "stateMutability": "nonpayable",
      "type": "function"
    },
    {
      "inputs": [],
      "name": "getHouses",
      "outputs": [
        {
          "components": [
            {
              "internalType": "uint8",
              "name": "owner",
              "type": "uint8"
            },
            {
              "internalType": "uint8",
              "name": "amountOfHouses",
              "type": "uint8"
            }
          ],
          "internalType": "struct Monopoly.House[]",
          "name": "",
          "type": "tuple[]"
        }
      ],
      "stateMutability": "view",
      "type": "function"
    },
    {
      "inputs": [],
      "name": "getAllPlayerPositions",
      "outputs": [
        {
          "internalType": "uint8[]",
          "name": "",
          "type": "uint8[]"
        }
      ],
      "stateMutability": "view",
      "type": "function"
    }
  ],
  "bytecode": "0x60806040525f8060146101000a81548160ff021916908360ff1602179055505f60025f6101000a81548160ff0219169083151502179055506001600260156101000a81548160ff021916908360ff1602179055505f60075f6101000a81548160ff02191690831515021790555060405180606001604052805f151581526020015f81526020015f81525060085f820151815f015f6101000a81548160ff0219169083151502179055506020820151816001015560408201518160020155505060405180606001604052806001151581526020016103e881526020016064815250600b5f820151815f015f6101000a81548160ff0219169083151502179055506020820151816001015560408201518160020155505060405180606001604052806001151581526020016107d0815260200160c8815250600e5f820151815f015f6101000a81548160ff021916908315150217905550602082015181600101556040820151816002015550506040518060600160405280600115158152602001610bb8815260200161012c81525060115f820151815f015f6101000a81548160ff021916908315150217905550602082015181600101556040820151816002015550506040518060600160405280600115158152602001610fa0815260200161019081525060145f820151815f015f6101000a81548160ff02191690831515021790555060208201518160010155604082015181600201555050604051806060016040528060011515815260200161138881526020016101f481525060175f820151815f015f6101000a81548160ff0219169083151502179055506020820151816001015560408201518160020155505060405180606001604052806001151581526020016117708152602001610258815250601a5f820151815f015f6101000a81548160ff021916908315150217905550602082015181600101556040820151816002015550506040518060600160405280600115158152602001611b5881526020016102bc815250601d5f820151815f015f6101000a81548160ff021916908315150217905550602082015181600101556040820151816002015550506040518060600160405280600115158152602001611f40815260200161032081525060205f820151815f015f6101000a81548160ff0219169083151502179055506020820151816001015560408201518160020155505034801562000380575f80fd5b5060405162004228380380620042288339818101604052810190620003a69190620016b4565b81600260016101000a81548173ffffffffffffffffffffffffffffffffffffffff021916908373ffffffffffffffffffffffffffffffffffffffff160217905550805f806101000a81548173ffffffffffffffffffffffffffffffffffffffff021916908373ffffffffffffffffffffffffffffffffffffffff16021790555060036008908060018154018082558091505060019003905f5260205f2090600302015f909190919091505f82015f9054906101000a900460ff16815f015f6101000a81548160ff021916908315150217905550600182015481600101556002820154816002015550506003600b908060018154018082558091505060019003905f5260205f2090600302015f909190919091505f82015f9054906101000a900460ff16815f015f6101000a81548160ff0219169083151502179055506001820154816001015560028201548160020155505060036008908060018154018082558091505060019003905f5260205f2090600302015f909190919091505f82015f9054906101000a900460ff16815f015f6101000a81548160ff021916908315150217905550600182015481600101556002820154816002015550506003600b908060018154018082558091505060019003905f5260205f2090600302015f909190919091505f82015f9054906101000a900460ff16815f015f6101000a81548160ff021916908315150217905550600182015481600101556002820154816002015550506003600b908060018154018082558091505060019003905f5260205f2090600302015f909190919091505f82015f9054906101000a900460ff16815f015f6101000a81548160ff0219169083151502179055506001820154816001015560028201548160020155505060036008908060018154018082558091505060019003905f5260205f2090600302015f909190919091505f82015f9054906101000a900460ff16815f015f6101000a81548160ff021916908315150217905550600182015481600101556002820154816002015550506003600e908060018154018082558091505060019003905f5260205f2090600302015f909190919091505f82015f9054906101000a900460ff16815f015f6101000a81548160ff0219169083151502179055506001820154816001015560028201548160020155505060036008908060018154018082558091505060019003905f5260205f2090600302015f909190919091505f82015f9054906101000a900460ff16815f015f6101000a81548160ff021916908315150217905550600182015481600101556002820154816002015550506003600e908060018154018082558091505060019003905f5260205f2090600302015f909190919091505f82015f9054906101000a900460ff16815f015f6101000a81548160ff021916908315150217905550600182015481600101556002820154816002015550506003600e908060018154018082558091505060019003905f5260205f2090600302015f909190919091505f82015f9054906101000a900460ff16815f015f6101000a81548160ff0219169083151502179055506001820154816001015560028201548160020155505060036008908060018154018082558091505060019003905f5260205f2090600302015f909190919091505f82015f9054906101000a900460ff16815f015f6101000a81548160ff0219169083151502179055506001820154816001015560028201548160020155505060036011908060018154018082558091505060019003905f5260205f2090600302015f909190919091505f82015f9054906101000a900460ff16815f015f6101000a81548160ff0219169083151502179055506001820154816001015560028201548160020155505060036008908060018154018082558091505060019003905f5260205f2090600302015f909190919091505f82015f9054906101000a900460ff16815f015f6101000a81548160ff0219169083151502179055506001820154816001015560028201548160020155505060036011908060018154018082558091505060019003905f5260205f2090600302015f909190919091505f82015f9054906101000a900460ff16815f015f6101000a81548160ff0219169083151502179055506001820154816001015560028201548160020155505060036011908060018154018082558091505060019003905f5260205f2090600302015f909190919091505f82015f9054906101000a900460ff16815f015f6101000a81548160ff0219169083151502179055506001820154816001015560028201548160020155505060036008908060018154018082558091505060019003905f5260205f2090600302015f909190919091505f82015f9054906101000a900460ff16815f015f6101000a81548160ff0219169083151502179055506001820154816001015560028201548160020155505060036014908060018154018082558091505060019003905f5260205f2090600302015f909190919091505f82015f9054906101000a900460ff16815f015f6101000a81548160ff0219169083151502179055506001820154816001015560028201548160020155505060036008908060018154018082558091505060019003905f5260205f2090600302015f909190919091505f82015f9054906101000a900460ff16815f015f6101000a81548160ff0219169083151502179055506001820154816001015560028201548160020155505060036014908060018154018082558091505060019003905f5260205f2090600302015f909190919091505f82015f9054906101000a900460ff16815f015f6101000a81548160ff0219169083151502179055506001820154816001015560028201548160020155505060036014908060018154018082558091505060019003905f5260205f2090600302015f909190919091505f82015f9054906101000a900460ff16815f015f6101000a81548160ff0219169083151502179055506001820154816001015560028201548160020155505060036008908060018154018082558091505060019003905f5260205f2090600302015f909190919091505f82015f9054906101000a900460ff16815f015f6101000a81548160ff0219169083151502179055506001820154816001015560028201548160020155505060036017908060018154018082558091505060019003905f5260205f2090600302015f909190919091505f82015f9054906101000a900460ff16815f015f6101000a81548160ff0219169083151502179055506001820154816001015560028201548160020155505060036008908060018154018082558091505060019003905f5260205f2090600302015f909190919091505f82015f9054906101000a900460ff16815f015f6101000a81548160ff0219169083151502179055506001820154816001015560028201548160020155505060036017908060018154018082558091505060019003905f5260205f2090600302015f909190919091505f82015f9054906101000a900460ff16815f015f6101000a81548160ff0219169083151502179055506001820154816001015560028201548160020155505060036017908060018154018082558091505060019003905f5260205f2090600302015f909190919091505f82015f9054906101000a900460ff16815f015f6101000a81548160ff0219169083151502179055506001820154816001015560028201548160020155505060036008908060018154018082558091505060019003905f5260205f2090600302015f909190919091505f82015f9054906101000a900460ff16815f015f6101000a81548160ff021916908315150217905550600182015481600101556002820154816002015550506003601a908060018154018082558091505060019003905f5260205f2090600302015f909190919091505f82015f9054906101000a900460ff16815f015f6101000a81548160ff0219169083151502179055506001820154816001015560028201548160020155505060036008908060018154018082558091505060019003905f5260205f2090600302015f909190919091505f82015f9054906101000a900460ff16815f015f6101000a81548160ff021916908315150217905550600182015481600101556002820154816002015550506003601a908060018154018082558091505060019003905f5260205f2090600302015f909190919091505f82015f9054906101000a900460ff16815f015f6101000a81548160ff021916908315150217905550600182015481600101556002820154816002015550506003601a908060018154018082558091505060019003905f5260205f2090600302015f909190919091505f82015f9054906101000a900460ff16815f015f6101000a81548160ff0219169083151502179055506001820154816001015560028201548160020155505060036008908060018154018082558091505060019003905f5260205f2090600302015f909190919091505f82015f9054906101000a900460ff16815f015f6101000a81548160ff021916908315150217905550600182015481600101556002820154816002015550506003601d908060018154018082558091505060019003905f5260205f2090600302015f909190919091505f82015f9054906101000a900460ff16815f015f6101000a81548160ff0219169083151502179055506001820154816001015560028201548160020155505060036008908060018154018082558091505060019003905f5260205f2090600302015f909190919091505f82015f9054906101000a900460ff16815f015f6101000a81548160ff021916908315150217905550600182015481600101556002820154816002015550506003601d908060018154018082558091505060019003905f5260205f2090600302015f909190919091505f82015f9054906101000a900460ff16815f015f6101000a81548160ff021916908315150217905550600182015481600101556002820154816002015550506003601d908060018154018082558091505060019003905f5260205f2090600302015f909190919091505f82015f9054906101000a900460ff16815f015f6101000a81548160ff0219169083151502179055506001820154816001015560028201548160020155505060036008908060018154018082558091505060019003905f5260205f2090600302015f909190919091505f82015f9054906101000a900460ff16815f015f6101000a81548160ff0219169083151502179055506001820154816001015560028201548160020155505060036020908060018154018082558091505060019003905f5260205f2090600302015f909190919091505f82015f9054906101000a900460ff16815f015f6101000a81548160ff0219169083151502179055506001820154816001015560028201548160020155505060036020908060018154018082558091505060019003905f5260205f2090600302015f909190919091505f82015f9054906101000a900460ff16815f015f6101000a81548160ff0219169083151502179055506001820154816001015560028201548160020155505060036008908060018154018082558091505060019003905f5260205f2090600302015f909190919091505f82015f9054906101000a900460ff16815f015f6101000a81548160ff0219169083151502179055506001820154816001015560028201548160020155505060036020908060018154018082558091505060019003905f5260205f2090600302015f909190919091505f82015f9054906101000a900460ff16815f015f6101000a81548160ff02191690831515021790555060018201548160010155600282015481600201555050600467ffffffffffffffff811115620014ac57620014ab620016f9565b5b604051908082528060200260200182016040528015620014db5781602001602082028036833780820191505090505b5060069080519060200190620014f3929190620015a6565b505f5b60288160ff1610156200159d575f60405180604001604052805f60ff1681526020015f60ff168152509050600581908060018154018082558091505060019003905f5260205f20015f909190919091505f820151815f015f6101000a81548160ff021916908360ff1602179055506020820151815f0160016101000a81548160ff021916908360ff160217905550505050808062001594906200175f565b915050620014f6565b5050506200178c565b828054828255905f5260205f209081019282156200161f579160200282015b828111156200161e578251825f6101000a81548173ffffffffffffffffffffffffffffffffffffffff021916908373ffffffffffffffffffffffffffffffffffffffff16021790555091602001919060010190620015c5565b5b5090506200162e919062001632565b5090565b5b808211156200164b575f815f90555060010162001633565b5090565b5f80fd5b5f73ffffffffffffffffffffffffffffffffffffffff82169050919050565b5f6200167e8262001653565b9050919050565b620016908162001672565b81146200169b575f80fd5b50565b5f81519050620016ae8162001685565b92915050565b5f8060408385031215620016cd57620016cc6200164f565b5b5f620016dc858286016200169e565b9250506020620016ef858286016200169e565b9150509250929050565b7f4e487b71000000000000000000000000000000000000000000000000000000005f52604160045260245ffd5b7f4e487b71000000000000000000000000000000000000000000000000000000005f52601160045260245ffd5b5f60ff82169050919050565b5f6200176b8262001753565b915060ff820362001781576200178062001726565b5b600182019050919050565b612a8e806200179a5f395ff3fe608060405234801561000f575f80fd5b506004361061011f575f3560e01c8063bb472219116100ab578063e701c0241161006f578063e701c0241461029d578063f6fb6ecf146102bb578063f7b10808146102c5578063fc6f9468146102f7578063fd5f33ec146103155761011f565b8063bb47221914610208578063d30074d914610212578063d497a04914610230578063d5980da11461024e578063e2eb41ff1461026c5761011f565b8063302bcc57116100f2578063302bcc571461018757806375ab8da3146101a5578063a833b8bf146101af578063aeda852f146101b9578063b2dcdc8b146101ea5761011f565b806305d660f814610123578063137bf3d11461012d5780632572cd6e1461014b5780632583dc8714610169575b5f80fd5b61012b610333565b005b610135610605565b6040516101429190611ec7565b60405180910390f35b61015361061a565b6040516101609190611ef8565b60405180910390f35b610171610633565b60405161017e9190611ec7565b60405180910390f35b61018f610645565b60405161019c9190611f2c565b60405180910390f35b6101ad610657565b005b6101b76109c3565b005b6101d360048036038101906101ce9190611f73565b610bfe565b6040516101e1929190611f9e565b60405180910390f35b6101f2610c41565b6040516101ff9190611ec7565b60405180910390f35b610210610c53565b005b61021a6110a4565b6040516102279190611f2c565b60405180910390f35b6102386110b7565b604051610245919061203f565b60405180910390f35b6102566110da565b6040516102639190611ec7565b60405180910390f35b61028660048036038101906102819190612093565b6110ec565b604051610294929190611f9e565b60405180910390f35b6102a5611124565b6040516102b29190612175565b60405180910390f35b6102c3611270565b005b6102df60048036038101906102da9190611f73565b611813565b6040516102ee93929190612195565b60405180910390f35b6102ff611854565b60405161030c91906121d9565b60405180910390f35b61031d61187a565b60405161032a91906122c7565b60405180910390f35b5f60015f3373ffffffffffffffffffffffffffffffffffffffff1673ffffffffffffffffffffffffffffffffffffffff1681526020019081526020015f205f0160019054906101000a900460ff1660ff16036103c4576040517f08c379a00000000000000000000000000000000000000000000000000000000081526004016103bb90612367565b60405180910390fd5b6001151560025f9054906101000a900460ff16151514610419576040517f08c379a0000000000000000000000000000000000000000000000000000000008152600401610410906123cf565b60405180910390fd5b600260159054906101000a900460ff1660ff1660015f3373ffffffffffffffffffffffffffffffffffffffff1673ffffffffffffffffffffffffffffffffffffffff1681526020019081526020015f205f0160019054906101000a900460ff1660ff16146104bc576040517f08c379a00000000000000000000000000000000000000000000000000000000081526004016104b390612437565b60405180910390fd5b60075f9054906101000a900460ff161561050b576040517f08c379a0000000000000000000000000000000000000000000000000000000008152600401610502906124c5565b60405180910390fd5b600160075f6101000a81548160ff0219169083151502179055505f61052e611909565b90505f81905061053d81611954565b610545611a25565b3373ffffffffffffffffffffffffffffffffffffffff167fe8cbb53138acd6ffb36be3ca844856a47824b3883db3629ed34e19b338dde2d78260015f3373ffffffffffffffffffffffffffffffffffffffff1673ffffffffffffffffffffffffffffffffffffffff1681526020019081526020015f205f015f9054906101000a900460ff16600260159054906101000a900460ff1660045f9054906101000a900460ff166040516105f994939291906124e3565b60405180910390a25050565b5f60025f9054906101000a900460ff16905090565b5f600260159054906101000a900460ff1660ff16905090565b60025f9054906101000a900460ff1681565b5f60149054906101000a900460ff1681565b5f60015f3373ffffffffffffffffffffffffffffffffffffffff1673ffffffffffffffffffffffffffffffffffffffff1681526020019081526020015f205f0160019054906101000a900460ff1660ff16146106e8576040517f08c379a00000000000000000000000000000000000000000000000000000000081526004016106df90612570565b60405180910390fd5b60045f60149054906101000a900460ff1660ff161061073c576040517f08c379a0000000000000000000000000000000000000000000000000000000008152600401610733906125fe565b60405180910390fd5b60015f60149054906101000a900460ff166107579190612649565b60015f3373ffffffffffffffffffffffffffffffffffffffff1673ffffffffffffffffffffffffffffffffffffffff1681526020019081526020015f205f0160016101000a81548160ff021916908360ff1602179055506001805f3373ffffffffffffffffffffffffffffffffffffffff1673ffffffffffffffffffffffffffffffffffffffff1681526020019081526020015f205f015f6101000a81548160ff021916908360ff1602179055503360065f60149054906101000a900460ff1660ff168154811061082b5761082a61267d565b5b905f5260205f20015f6101000a81548173ffffffffffffffffffffffffffffffffffffffff021916908373ffffffffffffffffffffffffffffffffffffffff1602179055505f8054906101000a900473ffffffffffffffffffffffffffffffffffffffff1673ffffffffffffffffffffffffffffffffffffffff1663bcfaa79d336040518263ffffffff1660e01b81526004016108c891906121d9565b5f604051808303815f87803b1580156108df575f80fd5b505af11580156108f1573d5f803e3d5ffd5b5050505060015f60149054906101000a900460ff166109109190612649565b60ff163373ffffffffffffffffffffffffffffffffffffffff167f133f6ea8e187737c0d03e1974a9b1d506863b765a3ebd937476bd5f34538937760405160405180910390a35f601481819054906101000a900460ff1680929190610974906126aa565b91906101000a81548160ff021916908360ff1602179055505060045f60149054906101000a900460ff1660ff16036109c157600160025f6101000a81548160ff0219169083151502179055505b565b5f60015f3373ffffffffffffffffffffffffffffffffffffffff1673ffffffffffffffffffffffffffffffffffffffff1681526020019081526020015f205f0160019054906101000a900460ff1660ff1603610a54576040517f08c379a0000000000000000000000000000000000000000000000000000000008152600401610a4b90612367565b60405180910390fd5b6001151560025f9054906101000a900460ff16151514610aa9576040517f08c379a0000000000000000000000000000000000000000000000000000000008152600401610aa0906123cf565b60405180910390fd5b600260159054906101000a900460ff1660ff1660015f3373ffffffffffffffffffffffffffffffffffffffff1673ffffffffffffffffffffffffffffffffffffffff1681526020019081526020015f205f0160019054906101000a900460ff1660ff1614610b4c576040517f08c379a0000000000000000000000000000000000000000000000000000000008152600401610b4390612437565b60405180910390fd5b6001151560045f9054906101000a900460ff16151514610ba1576040517f08c379a0000000000000000000000000000000000000000000000000000000008152600401610b989061271c565b60405180910390fd5b60016004600260159054906101000a900460ff16610bbf9190612767565b610bc99190612649565b600260156101000a81548160ff021916908360ff1602179055505f60075f6101000a81548160ff021916908315150217905550565b60058181548110610c0d575f80fd5b905f5260205f20015f91509050805f015f9054906101000a900460ff1690805f0160019054906101000a900460ff16905082565b60045f9054906101000a900460ff1681565b600260019054906101000a900473ffffffffffffffffffffffffffffffffffffffff1673ffffffffffffffffffffffffffffffffffffffff163373ffffffffffffffffffffffffffffffffffffffff1614610ce3576040517f08c379a0000000000000000000000000000000000000000000000000000000008152600401610cda90612807565b60405180910390fd5b5f5b6006805490508160ff161015610e27575f60068260ff1681548110610d0d57610d0c61267d565b5b905f5260205f20015f9054906101000a900473ffffffffffffffffffffffffffffffffffffffff1690505f60015f8373ffffffffffffffffffffffffffffffffffffffff1673ffffffffffffffffffffffffffffffffffffffff1681526020019081526020015f205f0160019054906101000a900460ff1660ff1614610e13575f8054906101000a900473ffffffffffffffffffffffffffffffffffffffff1673ffffffffffffffffffffffffffffffffffffffff16637e9d2ac1826040518263ffffffff1660e01b8152600401610de591906121d9565b5f604051808303815f87803b158015610dfc575f80fd5b505af1158015610e0e573d5f803e3d5ffd5b505050505b508080610e1f906126aa565b915050610ce5565b505f8060146101000a81548160ff021916908360ff1602179055505f60025f6101000a81548160ff0219169083151502179055506001600260156101000a81548160ff021916908360ff16021790555060055f610e849190611db1565b5f5b60288160ff161015610f29575f60405180604001604052805f60ff1681526020015f60ff168152509050600581908060018154018082558091505060019003905f5260205f20015f909190919091505f820151815f015f6101000a81548160ff021916908360ff1602179055506020820151815f0160016101000a81548160ff021916908360ff1602179055505050508080610f21906126aa565b915050610e86565b505f5b6006805490508160ff161015611041575f60068260ff1681548110610f5457610f5361267d565b5b905f5260205f20015f9054906101000a900473ffffffffffffffffffffffffffffffffffffffff1690505f60015f8373ffffffffffffffffffffffffffffffffffffffff1673ffffffffffffffffffffffffffffffffffffffff1681526020019081526020015f205f0160016101000a81548160ff021916908360ff1602179055505f60015f8373ffffffffffffffffffffffffffffffffffffffff1673ffffffffffffffffffffffffffffffffffffffff1681526020019081526020015f205f015f6101000a81548160ff021916908360ff160217905550508080611039906126aa565b915050610f2c565b50600467ffffffffffffffff81111561105d5761105c612825565b5b60405190808252806020026020018201604052801561108b5781602001602082028036833780820191505090505b50600690805190602001906110a1929190611dcf565b50565b600260159054906101000a900460ff1681565b5f8054906101000a900473ffffffffffffffffffffffffffffffffffffffff1681565b60075f9054906101000a900460ff1681565b6001602052805f5260405f205f91509050805f015f9054906101000a900460ff1690805f0160019054906101000a900460ff16905082565b60605f8060149054906101000a900460ff1660ff1667ffffffffffffffff81111561115257611151612825565b5b6040519080825280602002602001820160405280156111805781602001602082028036833780820191505090505b5090505f5b5f60149054906101000a900460ff1660ff168160ff1610156112685760015f60068360ff16815481106111bb576111ba61267d565b5b905f5260205f20015f9054906101000a900473ffffffffffffffffffffffffffffffffffffffff1673ffffffffffffffffffffffffffffffffffffffff1673ffffffffffffffffffffffffffffffffffffffff1681526020019081526020015f205f015f9054906101000a900460ff16828260ff16815181106112415761124061267d565b5b602002602001019060ff16908160ff16815250508080611260906126aa565b915050611185565b508091505090565b5f60015f3373ffffffffffffffffffffffffffffffffffffffff1673ffffffffffffffffffffffffffffffffffffffff1681526020019081526020015f205f0160019054906101000a900460ff1660ff1603611301576040517f08c379a00000000000000000000000000000000000000000000000000000000081526004016112f890612367565b60405180910390fd5b6001151560025f9054906101000a900460ff16151514611356576040517f08c379a000000000000000000000000000000000000000000000000000000000815260040161134d906123cf565b60405180910390fd5b600260159054906101000a900460ff1660ff1660015f3373ffffffffffffffffffffffffffffffffffffffff1673ffffffffffffffffffffffffffffffffffffffff1681526020019081526020015f205f0160019054906101000a900460ff1660ff16146113f9576040517f08c379a00000000000000000000000000000000000000000000000000000000081526004016113f090612437565b60405180910390fd5b6001151560045f9054906101000a900460ff1615151461144e576040517f08c379a00000000000000000000000000000000000000000000000000000000081526004016114459061271c565b60405180910390fd5b5f60036001805f3373ffffffffffffffffffffffffffffffffffffffff1673ffffffffffffffffffffffffffffffffffffffff1681526020019081526020015f205f015f9054906101000a900460ff166114a89190612852565b60ff16815481106114bc576114bb61267d565b5b905f5260205f209060030201600101549050805f8054906101000a900473ffffffffffffffffffffffffffffffffffffffff1673ffffffffffffffffffffffffffffffffffffffff166370a08231336040518263ffffffff1660e01b815260040161152791906121d9565b602060405180830381865afa158015611542573d5f803e3d5ffd5b505050506040513d601f19601f82011682018060405250810190611566919061289a565b10156115a7576040517f08c379a000000000000000000000000000000000000000000000000000000000815260040161159e9061290f565b60405180910390fd5b60015f3373ffffffffffffffffffffffffffffffffffffffff1673ffffffffffffffffffffffffffffffffffffffff1681526020019081526020015f205f0160019054906101000a900460ff1660056001805f3373ffffffffffffffffffffffffffffffffffffffff1673ffffffffffffffffffffffffffffffffffffffff1681526020019081526020015f205f015f9054906101000a900460ff1661164d9190612852565b60ff16815481106116615761166061267d565b5b905f5260205f20015f015f6101000a81548160ff021916908360ff160217905550600160056001805f3373ffffffffffffffffffffffffffffffffffffffff1673ffffffffffffffffffffffffffffffffffffffff1681526020019081526020015f205f015f9054906101000a900460ff166116dd9190612852565b60ff16815481106116f1576116f061267d565b5b905f5260205f20015f0160018282829054906101000a900460ff166117169190612649565b92506101000a81548160ff021916908360ff1602179055505f8054906101000a900473ffffffffffffffffffffffffffffffffffffffff1673ffffffffffffffffffffffffffffffffffffffff16639dc29fac33836040518363ffffffff1660e01b815260040161178892919061292d565b5f604051808303815f87803b15801561179f575f80fd5b505af11580156117b1573d5f803e3d5ffd5b5050505060016004600260159054906101000a900460ff166117d39190612767565b6117dd9190612649565b600260156101000a81548160ff021916908360ff1602179055505f60075f6101000a81548160ff02191690831515021790555050565b60038181548110611822575f80fd5b905f5260205f2090600302015f91509050805f015f9054906101000a900460ff16908060010154908060020154905083565b600260019054906101000a900473ffffffffffffffffffffffffffffffffffffffff1681565b60606005805480602002602001604051908101604052809291908181526020015f905b82821015611900578382905f5260205f20016040518060400160405290815f82015f9054906101000a900460ff1660ff1660ff1681526020015f820160019054906101000a900460ff1660ff1660ff16815250508152602001906001019061189d565b50505050905090565b5f60016006424433604051602001611923939291906129b9565b604051602081830303815290604052805190602001205f1c61194591906129f5565b61194f9190612a25565b905090565b5f8160015f3373ffffffffffffffffffffffffffffffffffffffff1673ffffffffffffffffffffffffffffffffffffffff1681526020019081526020015f205f015f9054906101000a900460ff166119ac9190612649565b90508060015f3373ffffffffffffffffffffffffffffffffffffffff1673ffffffffffffffffffffffffffffffffffffffff1681526020019081526020015f205f015f6101000a81548160ff021916908360ff16021790555060288160ff161115611a2157602881611a1e9190612767565b90505b5050565b60036001805f3373ffffffffffffffffffffffffffffffffffffffff1673ffffffffffffffffffffffffffffffffffffffff1681526020019081526020015f205f015f9054906101000a900460ff16611a7e9190612852565b60ff1681548110611a9257611a9161267d565b5b905f5260205f2090600302015f015f9054906101000a900460ff168015611bcb575060036001805f3373ffffffffffffffffffffffffffffffffffffffff1673ffffffffffffffffffffffffffffffffffffffff1681526020019081526020015f205f015f9054906101000a900460ff16611b0d9190612852565b60ff1681548110611b2157611b2061267d565b5b905f5260205f209060030201600101545f8054906101000a900473ffffffffffffffffffffffffffffffffffffffff1673ffffffffffffffffffffffffffffffffffffffff166370a08231336040518263ffffffff1660e01b8152600401611b8991906121d9565b602060405180830381865afa158015611ba4573d5f803e3d5ffd5b505050506040513d601f19601f82011682018060405250810190611bc8919061289a565b10155b8015611bdc5750611bda611c77565b155b15611c0057600160045f6101000a81548160ff021916908315150217905550611c75565b5f60045f6101000a81548160ff02191690831515021790555060016004600260159054906101000a900460ff16611c379190612767565b611c419190612649565b600260156101000a81548160ff021916908360ff1602179055505f60075f6101000a81548160ff0219169083151502179055505b565b5f8060015f3373ffffffffffffffffffffffffffffffffffffffff1673ffffffffffffffffffffffffffffffffffffffff1681526020019081526020015f205f015f9054906101000a900460ff1690505f60015f3373ffffffffffffffffffffffffffffffffffffffff1673ffffffffffffffffffffffffffffffffffffffff1681526020019081526020015f205f0160019054906101000a900460ff1660ff166005600184611d279190612852565b60ff1681548110611d3b57611d3a61267d565b5b905f5260205f20015f015f9054906101000a900460ff1660ff1614158015611d9f57505f6005600184611d6e9190612852565b60ff1681548110611d8257611d8161267d565b5b905f5260205f20015f015f9054906101000a900460ff1660ff1614155b15611da957600190505b809250505090565b5080545f8255905f5260205f2090810190611dcc9190611e56565b50565b828054828255905f5260205f20908101928215611e45579160200282015b82811115611e44578251825f6101000a81548173ffffffffffffffffffffffffffffffffffffffff021916908373ffffffffffffffffffffffffffffffffffffffff16021790555091602001919060010190611ded565b5b509050611e529190611e92565b5090565b5b80821115611e8e575f8082015f6101000a81549060ff02191690555f820160016101000a81549060ff021916905550600101611e57565b5090565b5b80821115611ea9575f815f905550600101611e93565b5090565b5f8115159050919050565b611ec181611ead565b82525050565b5f602082019050611eda5f830184611eb8565b92915050565b5f819050919050565b611ef281611ee0565b82525050565b5f602082019050611f0b5f830184611ee9565b92915050565b5f60ff82169050919050565b611f2681611f11565b82525050565b5f602082019050611f3f5f830184611f1d565b92915050565b5f80fd5b611f5281611ee0565b8114611f5c575f80fd5b50565b5f81359050611f6d81611f49565b92915050565b5f60208284031215611f8857611f87611f45565b5b5f611f9584828501611f5f565b91505092915050565b5f604082019050611fb15f830185611f1d565b611fbe6020830184611f1d565b9392505050565b5f73ffffffffffffffffffffffffffffffffffffffff82169050919050565b5f819050919050565b5f612007612002611ffd84611fc5565b611fe4565b611fc5565b9050919050565b5f61201882611fed565b9050919050565b5f6120298261200e565b9050919050565b6120398161201f565b82525050565b5f6020820190506120525f830184612030565b92915050565b5f61206282611fc5565b9050919050565b61207281612058565b811461207c575f80fd5b50565b5f8135905061208d81612069565b92915050565b5f602082840312156120a8576120a7611f45565b5b5f6120b58482850161207f565b91505092915050565b5f81519050919050565b5f82825260208201905092915050565b5f819050602082019050919050565b6120f081611f11565b82525050565b5f61210183836120e7565b60208301905092915050565b5f602082019050919050565b5f612123826120be565b61212d81856120c8565b9350612138836120d8565b805f5b8381101561216857815161214f88826120f6565b975061215a8361210d565b92505060018101905061213b565b5085935050505092915050565b5f6020820190508181035f83015261218d8184612119565b905092915050565b5f6060820190506121a85f830186611eb8565b6121b56020830185611ee9565b6121c26040830184611ee9565b949350505050565b6121d381612058565b82525050565b5f6020820190506121ec5f8301846121ca565b92915050565b5f81519050919050565b5f82825260208201905092915050565b5f819050602082019050919050565b604082015f82015161222f5f8501826120e7565b50602082015161224260208501826120e7565b50505050565b5f612253838361221b565b60408301905092915050565b5f602082019050919050565b5f612275826121f2565b61227f81856121fc565b935061228a8361220c565b805f5b838110156122ba5781516122a18882612248565b97506122ac8361225f565b92505060018101905061228d565b5085935050505092915050565b5f6020820190508181035f8301526122df818461226b565b905092915050565b5f82825260208201905092915050565b7f4f6e6c79207265676973746572656420706c61796572732063616e207468726f5f8201527f772074686520646963652e000000000000000000000000000000000000000000602082015250565b5f612351602b836122e7565b915061235c826122f7565b604082019050919050565b5f6020820190508181035f83015261237e81612345565b9050919050565b7f5468652067616d65206973206e6f74206f6e2e000000000000000000000000005f82015250565b5f6123b96013836122e7565b91506123c482612385565b602082019050919050565b5f6020820190508181035f8301526123e6816123ad565b9050919050565b7f4e6f7420796f7572207475726e2e0000000000000000000000000000000000005f82015250565b5f612421600e836122e7565b915061242c826123ed565b602082019050919050565b5f6020820190508181035f83015261244e81612415565b9050919050565b7f596f75206861766520616c7265616479207468726f776e2074686973207475725f8201527f6e2e000000000000000000000000000000000000000000000000000000000000602082015250565b5f6124af6022836122e7565b91506124ba82612455565b604082019050919050565b5f6020820190508181035f8301526124dc816124a3565b9050919050565b5f6080820190506124f65f830187611f1d565b6125036020830186611f1d565b6125106040830185611f1d565b61251d6060830184611eb8565b95945050505050565b7f506c6179657220616c7265616479206861732061206e756d62657200000000005f82015250565b5f61255a601b836122e7565b915061256582612526565b602082019050919050565b5f6020820190508181035f8301526125878161254e565b9050919050565b7f4d6178696d756d206e756d626572206f6620706c6179657273207265616368655f8201527f6400000000000000000000000000000000000000000000000000000000000000602082015250565b5f6125e86021836122e7565b91506125f38261258e565b604082019050919050565b5f6020820190508181035f830152612615816125dc565b9050919050565b7f4e487b71000000000000000000000000000000000000000000000000000000005f52601160045260245ffd5b5f61265382611f11565b915061265e83611f11565b9250828201905060ff8111156126775761267661261c565b5b92915050565b7f4e487b71000000000000000000000000000000000000000000000000000000005f52603260045260245ffd5b5f6126b482611f11565b915060ff82036126c7576126c661261c565b5b600182019050919050565b7f506c61796572206d75737420686176652063686f6963650000000000000000005f82015250565b5f6127066017836122e7565b9150612711826126d2565b602082019050919050565b5f6020820190508181035f830152612733816126fa565b9050919050565b7f4e487b71000000000000000000000000000000000000000000000000000000005f52601260045260245ffd5b5f61277182611f11565b915061277c83611f11565b92508261278c5761278b61273a565b5b828206905092915050565b7f4f6e6c79207468652061646d696e2063616e207265736574207468652067616d5f8201527f6500000000000000000000000000000000000000000000000000000000000000602082015250565b5f6127f16021836122e7565b91506127fc82612797565b604082019050919050565b5f6020820190508181035f83015261281e816127e5565b9050919050565b7f4e487b71000000000000000000000000000000000000000000000000000000005f52604160045260245ffd5b5f61285c82611f11565b915061286783611f11565b9250828203905060ff8111156128805761287f61261c565b5b92915050565b5f8151905061289481611f49565b92915050565b5f602082840312156128af576128ae611f45565b5b5f6128bc84828501612886565b91505092915050565b7f4e6f7420656e6f75676820746f6b656e730000000000000000000000000000005f82015250565b5f6128f96011836122e7565b9150612904826128c5565b602082019050919050565b5f6020820190508181035f830152612926816128ed565b9050919050565b5f6040820190506129405f8301856121ca565b61294d6020830184611ee9565b9392505050565b5f819050919050565b61296e61296982611ee0565b612954565b82525050565b5f8160601b9050919050565b5f61298a82612974565b9050919050565b5f61299b82612980565b9050919050565b6129b36129ae82612058565b612991565b82525050565b5f6129c4828661295d565b6020820191506129d4828561295d565b6020820191506129e482846129a2565b601482019150819050949350505050565b5f6129ff82611ee0565b9150612a0a83611ee0565b925082612a1a57612a1961273a565b5b828206905092915050565b5f612a2f82611ee0565b9150612a3a83611ee0565b9250828201905080821115612a5257612a5161261c565b5b9291505056fea264697066735822122019519bd5d6e05380e1be9ca029b1d8aecea81b6b881ff870c4763f44d688e2e464736f6c63430008150033",
  "immutableReferences": {},
  "source": "// SPDX-License-Identifier: MIT\npragma solidity >=0.4.22 <0.9.0;\n\nimport \"@openzeppelin/contracts/utils/structs/EnumerableSet.sol\";\nimport \"./MoneyPoly.sol\";\n\ncontract Monopoly {\n    using EnumerableSet for EnumerableSet.AddressSet;\n\n    MoneyPoly public moneyPolyContract;\n\n    struct Player {\n        uint8 playerPosition;\n        uint8 playerNumber;\n    }\n\n    struct Property {\n    bool isConstructible;\n    uint256 constructionCost;\n    uint256 rentPrice;\n    }\n\n    struct House {\n        uint8 owner; // playerNumber\n        uint8 amountOfHouses;\n    }\n\n    uint8 public playerCount = 0;\n    mapping(address => Player) public players;\n    bool public gameOn = false;\n    address public adminAddress;\n    uint8 public playerTurn = 1;\n    Property[] public properties;\n    bool public playerHasChoice;\n    House[] public houses;\n    address[] private playerAddresses; // tableau des addresses des joueurs. Sert a itrer pour le nettoyage\n    bool public playerThrown = false; // sert a se proteger d un lancer multiple\n\n    // Dclarer les variables de type Property pour viter la rptition\n    Property NOT_AVAILABLE = Property(false, 0, 0);\n    Property AVAILABLE_1000 = Property(true, 1000, 100);\n    Property AVAILABLE_2000 = Property(true, 2000, 200);\n    Property AVAILABLE_3000 = Property(true, 3000, 300);\n    Property AVAILABLE_4000 = Property(true, 4000, 400);\n    Property AVAILABLE_5000 = Property(true, 5000, 500);\n    Property AVAILABLE_6000 = Property(true, 6000, 600);\n    Property AVAILABLE_7000 = Property(true, 7000, 700);\n    Property AVAILABLE_8000 = Property(true, 8000, 800);\n\n    event NewPlayer(address indexed player, uint8 indexed number);\n    event DiceThrown(address indexed player, uint8 diceValue, uint8 playerPosition, uint8 playerTurn, bool playerHasChoice);\n\n    constructor(address _adminAddress, address _moneyPolyAddress) {\n    adminAddress = _adminAddress;\n    // Initialiser le contrat MoneyPoly en utilisant son adresse\n    moneyPolyContract = MoneyPoly(_moneyPolyAddress);\n\n        properties.push(NOT_AVAILABLE);\n        properties.push(AVAILABLE_1000);\n        properties.push(NOT_AVAILABLE);\n        properties.push(AVAILABLE_1000);\n        properties.push(AVAILABLE_1000);\n        properties.push(NOT_AVAILABLE);\n        properties.push(AVAILABLE_2000);\n        properties.push(NOT_AVAILABLE);\n        properties.push(AVAILABLE_2000);\n        properties.push(AVAILABLE_2000);\n        properties.push(NOT_AVAILABLE);\n        properties.push(AVAILABLE_3000);\n        properties.push(NOT_AVAILABLE);\n        properties.push(AVAILABLE_3000);\n        properties.push(AVAILABLE_3000);\n        properties.push(NOT_AVAILABLE);\n        properties.push(AVAILABLE_4000);\n        properties.push(NOT_AVAILABLE);\n        properties.push(AVAILABLE_4000);\n        properties.push(AVAILABLE_4000);\n        properties.push(NOT_AVAILABLE);\n        properties.push(AVAILABLE_5000);\n        properties.push(NOT_AVAILABLE);\n        properties.push(AVAILABLE_5000);\n        properties.push(AVAILABLE_5000);\n        properties.push(NOT_AVAILABLE);\n        properties.push(AVAILABLE_6000);\n        properties.push(NOT_AVAILABLE);\n        properties.push(AVAILABLE_6000);\n        properties.push(AVAILABLE_6000);\n        properties.push(NOT_AVAILABLE);\n        properties.push(AVAILABLE_7000);\n        properties.push(NOT_AVAILABLE);\n        properties.push(AVAILABLE_7000);\n        properties.push(AVAILABLE_7000);\n        properties.push(NOT_AVAILABLE);\n        properties.push(AVAILABLE_8000);\n        properties.push(AVAILABLE_8000);\n        properties.push(NOT_AVAILABLE);\n        properties.push(AVAILABLE_8000);\n\n        playerAddresses = new address[](4); // initialiser le tableau playerAddresses avec une taille de 4\n\n            // TEST5\n               for (uint8 i = 0; i < 40; i++) {\n            House memory newHouse = House(0, 0);\n            houses.push(newHouse);\n            }           \n}\n    function generateRandomNumber() private view returns (uint256) {\n    return uint256(keccak256(abi.encodePacked(block.timestamp, block.difficulty, msg.sender))) % 6 + 1;\n    }\n\n    function assignPlayerNumber() public {\n        require(players[msg.sender].playerNumber == 0, \"Player already has a number\");\n        require(playerCount < 4, \"Maximum number of players reached\");\n        players[msg.sender].playerNumber = playerCount + 1;\n        players[msg.sender].playerPosition = 1;\n         playerAddresses[playerCount] = msg.sender; // Ajout de l'adresse du joueur au tableau\n        moneyPolyContract.mintTokens(msg.sender);\n        emit NewPlayer(msg.sender, playerCount + 1);\n\n        playerCount++;\n\n        if (playerCount == 4) {\n            gameOn = true;\n        }\n    }\n\n    function resetGame() public {\n\n        require(msg.sender == adminAddress, \"Only the admin can reset the game\");\n            // Burn tous les tokens de tous les joueurs en appelant la fonction burnAll de MoneyPoly\n        for (uint8 i = 0; i < playerAddresses.length; i++) {\n            address playerAddress = playerAddresses[i];\n            if (players[playerAddress].playerNumber != 0) {\n                moneyPolyContract.burnAll(playerAddress);\n            }\n        }\n        playerCount = 0;\n        gameOn = false;\n        playerTurn = 1;\n        delete houses;\n        for (uint8 i = 0; i < 40; i++) {\n            House memory newHouse = House(0, 0);\n            houses.push(newHouse);\n            }\n\n        // Rinitialiser le numro de joueur et la position pour tous les joueurs enregistrs, on doit boucler, car cest un mapping\n        for (uint8 i = 0; i < playerAddresses.length; i++) {\n            address playerAddress = playerAddresses[i];\n            players[playerAddress].playerNumber = 0;\n            players[playerAddress].playerPosition = 0;\n        }\n        playerAddresses = new address[](4);\n    }\n\n    function getGameOn() public view returns (bool) {\n        return gameOn;\n    }\n\n    function getPlayerTurn() public view returns (uint) {\n        return playerTurn;\n    }\n\n    modifier onlyPlayer {\n    require(players[msg.sender].playerNumber != 0, \"Only registered players can throw the dice.\");\n    _;\n    }\n\n    modifier gameIsOn {\n        require(gameOn == true, \"The game is not on.\");\n        _;\n    }\n\n    modifier ItIsPlayerTurn {\n        require(players[msg.sender].playerNumber == playerTurn, \"Not your turn.\");\n        _;\n    }\n\n        modifier firstThrown {\n        require(!playerThrown, \"You have already thrown this turn.\");\n        _;\n    }\n\n    function throwDice() public onlyPlayer gameIsOn ItIsPlayerTurn firstThrown {\n        playerThrown = true;\n        uint256 bigDiceValue = generateRandomNumber();\n        uint8 diceValue = uint8(bigDiceValue);\n        movePlayer(diceValue);\n        setPlayerHasChoice();\n        emit DiceThrown(msg.sender, diceValue, players[msg.sender].playerPosition, playerTurn, playerHasChoice);\n    }\n\n    function movePlayer(uint8 diceValue) private {\n        uint8 newPosition = players[msg.sender].playerPosition + diceValue;\n        players[msg.sender].playerPosition = newPosition;\n        if(newPosition > 40) {newPosition = newPosition % 40;}\n    }\n\n    function checkOwner() private view returns (bool) {\n    uint8 position = players[msg.sender].playerPosition;\n    bool otherOwner = false;\n    if (houses[position-1].owner != players[msg.sender].playerNumber && houses[position-1].owner != 0) {\n        otherOwner = true;\n    }\n    return otherOwner;\n}\n\n    function setPlayerHasChoice() private {\n        if (properties[players[msg.sender].playerPosition-1].isConstructible && moneyPolyContract.balanceOf(msg.sender) >= properties[players[msg.sender].playerPosition-1].constructionCost && !checkOwner()) {\n            playerHasChoice = true;            // on ne passe pas au tour suivant, car le joueur appelera buildHouse ou endTurn\n        } else {\n            playerHasChoice = false;\n            playerTurn = (playerTurn) % 4 + 1; // si pas le choix, on passe au joueur suivant\n            playerThrown = false;\n        }\n    }\n\n\n    function buildHouse() public onlyPlayer gameIsOn ItIsPlayerTurn {\n        require(playerHasChoice == true, \"Player must have choice\");\n        uint256 constructionCost = properties[players[msg.sender].playerPosition-1].constructionCost;\n        require(moneyPolyContract.balanceOf(msg.sender) >= constructionCost, \"Not enough tokens\");\n        houses[players[msg.sender].playerPosition-1].owner = players[msg.sender].playerNumber; // assigne le proprio\n        houses[players[msg.sender].playerPosition-1].amountOfHouses += 1; // incremente amountOfHouses\n        // Brler les jetons ncessaires pour la construction de la maison\n        moneyPolyContract.burn(msg.sender, constructionCost);\n        playerTurn = (playerTurn) % 4 + 1;\n        playerThrown = false;\n    }\n\n\n    function endTurn() public onlyPlayer gameIsOn ItIsPlayerTurn {\n        require(playerHasChoice == true, \"Player must have choice\");\n        playerTurn = (playerTurn) % 4 + 1;\n        playerThrown = false;\n    }\n\n\n    function getHouses() public view returns (House[] memory) {\n        return houses;\n    }\n\n    function getAllPlayerPositions() public view returns (uint8[] memory) {\n    uint8[] memory positions = new uint8[](playerCount);\n\n    for (uint8 i = 0; i < playerCount; i++) {\n        positions[i] = players[playerAddresses[i]].playerPosition;\n    }\n\n    return positions;\n}\n\n\n}",
  "sourcePath": "/Users/elouarakaziz/Projects/blockchain/monopoly/contracts/Monopoly.sol",
  "compiler": {
    "name": "solc",
    "version": "0.8.21+commit.d9974bed.Emscripten.clang"
  },
  "schemaVersion": "3.4.9",
  "updatedAt": "2023-07-28T20:35:54.848Z",
  "devdoc": {
    "kind": "dev",
    "methods": {},
    "version": 1
  },
  "userdoc": {
    "kind": "user",
    "methods": {},
    "version": 1
  }
}